:100000000C9446000C9450000C9450000C9450003A
:100010000C9450000C9450000C9450000C94500020
:100020000C9450000C9450000C9450000C94500010
:100030000C9450000C9450000C9450000C94500000
:100040000C9450000C9450000C9450000C945000F0
:100050000C9450000C9450000C9450000C945000E0
:100060000C9450000C9450000C9450000C945000D0
:100070000C9450000C9450000C9450000C945000C0
:100080000C9450000C9450000C94500011241FBE8E
:10009000CFEFD0E1DEBFCDBF0E9452000C94B10083
:1000A0000C9400008FEF8ABB90EF97BB11BA82BB14
:1000B0008BBB30E120E290E340E40CC080B38D3F85
:1000C000D1F080B38B3F29F180B3873F81F180B3BA
:1000D0008F3ED9F180B38E3F89F71BBA18BA5FEF14
:1000E00060E782E0515060408040E1F700C00000CE
:1000F00080B38D3F31F71BBA38BB5FEF60E782E01A
:10010000515060408040E1F700C0000080B38B3F59
:10011000D9F61BBA28BB5FEF60E782E05150604020
:100120008040E1F700C0000080B3873F81F61BBA32
:1001300098BB5FEF60E782E0515060408040E1F79C
:1001400000C0000080B38F3E29F61BBA48BB5FEFAA
:1001500060E782E0515060408040E1F700C000005D
:06016000B9CFF894FFCFB7
:00000001FF
