:100000000C9446000C9465000C9465000C946500FB
:100010000C9465000C9465000C9465000C946500CC
:100020000C9465000C9465000C9465000C946500BC
:100030000C9465000C9465000C9465000C946500AC
:100040000C9449010C9465000C9465000C946500B7
:100050000C9465000C9465000C9465000C9465008C
:100060000C9465000C9465000C9465000C9465007C
:100070000C9465000C9465000C9465000C9465006C
:100080000C9465000C9465000C94650011241FBE4F
:10009000CFEFD0E1DEBFCDBF11E0A0E0B1E0E6E9F7
:1000A000F4E000E00BBF02C007900D92A031B10751
:1000B000D9F721E0A0E1B1E001C01D92A932B20759
:1000C000E1F70E94DA010C9449020C940000EF92CF
:1000D000FF920F931F93CF93DF938C019C01369572
:1000E00027953695279536952795A5ECB0E20E9481
:1000F0003A02EC01FC01F295E295EF70EF27FF70F8
:10010000EF2728EE33E0E29FC001E39F900DF29FBE
:10011000900D1124F801E81BF90B9F0136952795E6
:1001200036952795ABE7B4E10E943A027C01AC0119
:100130005695479524E6249FC001259F900D1124D4
:10014000AF01481B590B9A01ADECBCEC0E943A027E
:10015000969587959695879596958795BC01660F98
:10016000771F9C01220F331F220F331F220F331FD3
:10017000260F371F421B530BFA01E050FF4F20811F
:1001800020932501FC01E050FF4F808180932601E0
:10019000F701F695E795E050FF4F808180932701A6
:1001A000D295C295CF70CD27DF70CD27C050DF4FDD
:1001B0008881809328010A301105E4F00436110586
:1001C0006CF0083E13401CF48FEF80932801DF9100
:1001D000CF911F910F91FF90EF9008958FEF809333
:1001E000270180932801DF91CF911F910F91FF90FC
:1001F000EF9008958FEF80932601809327018093DD
:100200002801DF91CF911F910F91FF90EF900895FA
:10021000482FE82FF0E099B3EE0FFF1FEB5EFE4F83
:1002200020813181220F331F306E892F90E002C070
:10023000959587954A95E2F781709927282B392B58
:100240003183208381E02115304F09F080E008954B
:1002500087EF87BB0000000080E58DB9709A089594
:100260001D9A0000000083B1807283B90000000075
:100270001E9A83B1807483B91FB8779BFECF8FB16C
:100280000895809110018FB9779BFECFC09AC098D6
:1002900008951F920F920FB60F9211240BB60F9272
:1002A0002F933F934F935F936F937F938F939F937E
:1002B000AF93BF93EF93FF930E943001809314019B
:1002C00068B388B3806788BB00000000E7E1F1E015
:1002D00041E050E099B320813181220F331F306E0D
:1002E000892F90E0042E02C0959587950A94E2F735
:1002F00081709927822B932B819391938115904F35
:1003000011F14F5F5F4F4630510521F768BB000088
:100310000000809110018FB9779BFECFC09AC098E2
:10032000FF91EF91BF91AF919F918F917F916F91CD
:100330005F914F913F912F910F900BBE0F900FBE89
:100340000F901F90189580911001842780931001C1
:100350008FE39FE10197F1F700C00000D2CF9091A9
:100360001401292F21702093130196959170909379
:10037000120180910F01281779F0821778F43091DB
:100380000E01392B81E0313009F080E08195209316
:100390000F0190930E010895222331F080E0209305
:1003A0000F0190930E01089581E030910E01931793
:1003B00070F3F4CF80B780BF789487B7816087BF30
:1003C00085E083BF8FEF82B90000000087EF87BB15
:1003D0000000000080E58DB9709AC0E0D0E0F12CFB
:1003E000EE24EA94CC24C394D12C39C00F2D10E014
:1003F000F3948FE39FE10197F1F700C000001ABA70
:1004000000000000EBBA0E94AF0180931101A60129
:100410000090100102C0440F551F0A94E2F7682FA4
:1004200064039001659F300D1124C20FD31FD7FDC7
:100430001EC0C11584E0D80714F0C1E0D0E0CE01A1
:100440000E946700EABA00000000F801EB5DFE4F71
:1004500080818BBBF801E65FFE4F808188BB64E042
:10046000F612C4CFFF24F39400E010E0C2CFCFEF28
:10047000D3E0E5CFA29FB001B39FC001A39F700D51
:10048000811D1124911DB29F700D811D1124911D9C
:060490000895F894FFCF6F
:10049600039F250D9949411F0109001030400303B0
:00000001FF
