:100000000C9446000C9450000C9450000C9450003A
:100010000C9450000C9450000C9450000C94500020
:100020000C9450000C9450000C9450000C94500010
:100030000C9450000C9450000C9450000C94500000
:100040000C9450000C9450000C9450000C945000F0
:100050000C9450000C9450000C9450000C945000E0
:100060000C9450000C9450000C9450000C945000D0
:100070000C9450000C9450000C9450000C945000C0
:100080000C9450000C9450000C94500011241FBE8E
:10009000CFEFD0E1DEBFCDBF0E945A000C949A0092
:1000A0000C94000087B3876087BB8DB182678DB9E0
:1000B000709A089587B3876087BB8DB182678DB9C9
:1000C000709A81E08FB9779BFECFC09AC098880F55
:1000D00087FD2EC02FEF31EE94E02150304090404C
:1000E000E1F700C000002FEF31EE94E021503040E6
:1000F0009040E1F700C000002FEF31EE94E0215076
:1001000030409040E1F700C000002FEF31EE94E066
:10011000215030409040E1F700C000002FEF31EE59
:1001200094E0215030409040E1F700C00000CACF79
:0801300081E0D0CFF894FFCF6D
:00000001FF
