S0110000756172745F727874782E7372656322
S113000019C028C027C026C025C024C023C022C0D0
S113001021C020C01FC01EC01DC01CC01BC01AC0F0
S113002019C018C017C016C015C014C013C012C020
S113003011C010C011241FBECFEFD2E0DEBFCDBF70
S113004021E0A0E0B1E001C01D92A636B207E1F7BD
S113005058D05CC0D5CF9091C00095FFFCCF809361
S1130060C6008091C00085FFFCCF0895FC0120816B
S1130070222371F031969091C00095FFFCCF20931C
S1130080C6009091C00095FFFCCF21912111F3CFC0
S113009008959C01C901F9014491442399F02F5F0B
S11300A03F4FFC0184919091C00095FFFCCF809359
S11300B0C6009091C00095FFFCCFC901F90144919D
S11300C04111EDCF0895E1ECF0E0808188698083EF
S11300D0E2ECF0E08081866080831092C50083E3C7
S11300E08093C400089580E89EE302C0019739F02C
S11300F02091C00027FFFACF8091C600089580E0C8
S11301000895E1DF789483E6A6DFFDCFF894FFCF6E
S9030000FC
