S0160000736972656E5F736B656C65746F6E2E7372656329
S11300000C9446000C9465000C9465000C946500F7
S11300100C9465000C9465000C9465000C946500C8
S11300200C9465000C9465000C9465000C946500B8
S11300300C9465000C9465000C9465000C946500A8
S11300400C9465000C9465000C9465000C94650098
S11300500C9465000C9465000C9465000C94650088
S11300600C9465000C9465000C9467000C94650076
S11300700C9465000C9465000C9465000C94650068
S11300800C9465000C9465000C94650011241FBE4B
S1130090CFEFD0E1DEBFCDBF11E0A0E0B1E0E6EAF2
S11300A0F1E000E00BBF02C007900D92A230B1074F
S11300B0D9F721E0A2E0B1E001C01D92A430B2075B
S11300C0E1F70E94AF000C94D1000C9400001F9241
S11300D00F920FB60F9211242F938F939F938091B9
S11300E00001813011F181111BC0809102019091B6
S11300F00301813727E2920758F5805C9F4F909364
S113010003018093020121E0209300019BBD8ABD7D
S11301109F918F912F910F900FBE0F901F90189564
S11301208091020190910301F1CF8091020190919D
S11301300301803322EF920738F4805C9F4F909341
S1130140030180930201E2CF8054910910920001CF
S1130150805491099093030180930201D7CF87B310
S1130160806A87BB8FB580688FBD8EB589608EBD70
S113017010927A0080E880938B0089E080938A0053
S113018010928C0080E090E1909387008093860029
S113019080E180937D008BE785BD80E983BD789401
S10901A0FFCFF894FFCF2D
S10501A6010052
S9030000FC
