:100000000C9446000C9450000C9450000C9450003A
:100010000C9450000C9450000C9450000C94500020
:100020000C9450000C9450000C9450000C94500010
:100030000C9452000C9450000C9450000C945000FE
:100040000C9450000C9450000C9450000C945000F0
:100050000C9450000C9450000C9450000C945000E0
:100060000C9450000C9450000C9450000C945000D0
:100070000C9450000C9450000C9450000C945000C0
:100080000C9450000C9450000C94500011241FBE8E
:10009000CFEFD0E1DEBFCDBF0E9461000C948F0096
:1000A0000C9400001F920F920FB60F9211248F93A1
:1000B00082B3805882BB8F910F900FBE0F901F901C
:1000C000189587B3806A87BB8FEF81BB90E892BB9E
:1000D00082B91FBC8AE08EBD10927A0089E692E058
:1000E0009BBD8ABD87B7806187BF80918B00826C82
:1000F00080938B0080918A00896180938A0010929E
:100100008C0080E090E8909387008093860080E0E8
:1001100090EF90938100809380007894FFCFF894C3
:02012000FFCF0F
:00000001FF
