S010000074657374627574742E7372656395
S11300000C9446000C9450000C9450000C94500036
S11300100C9450000C9450000C9450000C9450001C
S11300200C9450000C9450000C9450000C9450000C
S11300300C9450000C9450000C9450000C945000FC
S11300400C9450000C9450000C9450000C945000EC
S11300500C9450000C9450000C9450000C945000DC
S11300600C9450000C9450000C9450000C945000CC
S11300700C9450000C9450000C9450000C945000BC
S11300800C9450000C9450000C94500011241FBE8A
S1130090CFEFD0E1DEBFCDBF0E9452000C945900D7
S11300A00C9400001ABA8FEF8BBB87BB89B388BB53
S10900B0FDCFF894FFCF20
S9030000FC
