:100000000C9446000C9465000C9465000C946500FB
:100010000C9465000C9465000C9465000C946500CC
:100020000C9465000C9465000C9465000C946500BC
:100030000C9465000C9465000C9465000C946500AC
:100040000C9465000C9465000C9465000C9465009C
:100050000C9465000C9465000C9465000C9465008C
:100060000C9465000C9465000C9465000C9465007C
:100070000C9465000C9465000C9465000C9465006C
:100080000C9465000C9465000C94650011241FBE4F
:10009000CFEFD0E1DEBFCDBF11E0A0E0B1E0E0E501
:1000A000F3E000E00BBF02C007900D92AE30B10745
:1000B000D9F721E0AEE0B1E001C01D92A232B20753
:1000C000E1F70E9428010C94A6010C940000482F2F
:1000D000E82FF0E099B3EE0FFF1FE25FFE4F2081A3
:1000E0003181220F331F306E892F90E002C0959529
:1000F00087954A95E2F781709927282B392B318310
:10010000208381E02115304F09F080E00895EF92BF
:10011000FF920F931F93CF93DF938C019C01369531
:1001200027953695279536952795A5ECB0E20E9440
:100130009701EC01FC01F295E295EF70EF27FF705B
:10014000EF2728EE33E0E29FC001E39F900DF29F7E
:10015000900D1124F801E81BF90B9F0136952795A6
:1001600036952795ABE7B4E10E9497017C01AC017D
:100170005695479524E6249FC001259F900D112494
:10018000AF01481B590B9A01ADECBCEC0E949701E2
:10019000969587959695879596958795BC01660F58
:1001A000771F9C01220F331F220F331F220F331F93
:1001B000260F371F421B530BFA01E050FF4F2081DF
:1001C00020931E01FC01E050FF4F808180931F01AE
:1001D000F701F695E795E050FF4F8081809320016D
:1001E000D295C295CF70CD27DF70CD27C050DF4F9D
:1001F0008881809321010A301105E0F00436110551
:1002000068F0083E134018F48FEF80932101DF91CE
:10021000CF911F910F91FF90EF9008958FEF8093F2
:10022000200180932101DF91CF911F910F91FF90C9
:10023000EF9008958FEF80931F01809320018093AA
:100240002101DF91CF911F910F91FF90EF900895C1
:1002500080EF87BBC0E0D0E000E010E0DD24DA945E
:1002600090E7B92EEE24E394F12C30E5C32E8FE312
:100270009FE10197F1F700C000001ABA00000000EA
:10028000DBBAB8BAEEE0F1E020E030E005C02F5F65
:100290003F4F2830310559F199B340815181440FC6
:1002A000551F506E892F90E0022E02C095958795BC
:1002B0000A94E2F781709927842B952B819391936F
:1002C0008115904F21F7C701022E02C0880F991F98
:1002D0000A94E2F7C80FD91F8FE39FE10197F1F766
:1002E00000C000002F5F3F4F28303105A9F6C8BA83
:1002F000C11584E0D80710F0C1E0D0E0CE010E9423
:100300008700DABA00000000F801E25EFE4F80814B
:100310008BBBF801E65FFE4F808188BB0F5F1F4FEC
:100320000430110509F0A3CF00E010E0A0CFA29F98
:10033000B001B39FC001A39F700D811D1124911DB9
:10034000B29F700D811D1124911D0895F894FFCF67
:0E035000039F250D9949411F010900103040FF
:00000001FF
