:100000000C9446000C9458000C9458000C94580022
:100010000C9458000C9458000C9458000C94580000
:100020000C9458000C9458000C9458000C945800F0
:100030000C9458000C9458000C9458000C946200D6
:100040000C9458000C9458000C9458000C945800D0
:100050000C9458000C9458000C9458000C945800C0
:100060000C9458000C9458000C9458000C945800B0
:100070000C9458000C9458000C9458000C945800A0
:100080000C9458000C9458000C94580011241FBE76
:10009000CFEFD0E1DEBFCDBF21E0A0E0B1E001C0F5
:1000A0001D92A733B207E1F70E9460050C94350654
:1000B0000C94000087B3876087BB80E58DB981E031
:1000C0008EB908951F920F920FB60F9211248F933D
:1000D0009F93809102019091030181309105F9F085
:1000E00078F0029731F4819B04C0109203011092C2
:1000F00002019F918F910F900FBE0F901F90189546
:100100008199F7CF81E090E0909303018093020101
:100110009F918F910F900FBE0F901F901895809117
:1001200000019091010101969093010180930001DB
:1001300082E090E090930301809302019F918F9160
:100140000F900FBE0F901F90189591E0811101C084
:1001500090E09FB9779BFECF6FB9779BFECF8091E0
:10016000620088608093620080916200877F809344
:100170006200089520910501820F911DFC0180818C
:1001800081111FC081E08093040181E08FB9779BCA
:10019000FECF80E28FB9779BFECF809162008860AE
:1001A0008093620080916200877F809362008091DB
:1001B00005018F5F80930501803149F1803269F03C
:1001C0000895909104019111E0CF91E09FB9779B40
:1001D000FECF8FB9779BFECFE0CF85ED8A95F1F703
:1001E00000001FB8779BFECF80E88FB9779BFECFCA
:1001F0008091620088608093620080916200877FB6
:100200008093620010920401109205010895F5EDAB
:10021000FA95F1F700001FB8779BFECF80EC8FB9FD
:10022000779BFECF8091620088608093620080910E
:100230006200877F809362000895660F660F660FE5
:10024000605C1FB8779BFECF6FB9779BFECF209184
:10025000620028602093620020916200277F209333
:10026000620025ED2A95F1F70000FC019C01285F52
:100270003F4F91E081919FB9779BFECF8FB9779BDC
:10028000FECF80916200886080936200809162005E
:10029000877F8093620085ED8A95F1F70000E21771
:1002A000F30741F7089590E4899F600D1124605C85
:1002B0001FB8779BFECF6FB9779BFECF809162000E
:1002C00088608093620080916200877F80936200E3
:1002D0000895811113C081E08FB9779BFECF80E331
:1002E0008FB9779BFECF8091620088608093620017
:1002F00080916200877F8093620008958436B0F415
:100300008A3060F591E09FB9779BFECF9DEC899F85
:10031000912D11249695969596952AE0929F801995
:100320001124805D8FB9779BFECFDDCF99E2899F45
:10033000912D112492959F70905D21E02FB9779BAC
:10034000FECF9FB9779BFECF90916200986090930B
:10035000620090916200977F9093620099E2899F7A
:10036000912D112492959F70382F24E6929F301979
:1003700011242DEC329F912D1124969596959695EA
:10038000905D21E02FB9779BFECF9FB9779BFECF81
:100390009091620098609093620090916200977FC4
:1003A00090936200AFCF87FF0C94690191E09FB9F1
:1003B000779BFECF9DE29FB9779BFECF9091620025
:1003C00098609093620090916200977F9093620092
:1003D00095ED9A95F1F7000081950C9469011FB88D
:1003E000779BFECF8EE08FB9779BFECF8091620026
:1003F00088608093620080916200877F80936200B2
:1004000008951FB8779BFECF8CE08FB9779BFECF06
:100410008091620088608093620080916200877F93
:100420008093620008951FB8779BFECF8EE18FB94D
:10043000779BFECF809162008860809362008091FC
:100440006200877F8093620008951FB8779BFECF7C
:1004500088E18FB9779BFECF80916200886080939E
:10046000620080916200877F809362000895E2E6D7
:10047000F0E08081886080838081877F8083089519
:100480001FB8779BFECF81E08FB9779BFECF80911D
:10049000620088608093620080916200877F809311
:1004A00062008FE19CE10197F1F700C00000089520
:1004B0001FB8779BFECF82E08FB9779BFECF8091EC
:1004C000620088608093620080916200877F8093E1
:1004D00062008FE697E10197F1F700C000000895F0
:1004E0001FB8779BFECF80EC8FB9779BFECF8091B2
:1004F000620088608093620080916200877F8093B1
:10050000620008951FB8779BFECF80E88FB9779B74
:10051000FECF8091620088608093620080916200CB
:10052000877F80936200089590E131E020E23FB937
:10053000779BFECF2FB9779BFECF809162008860BA
:100540008093620080916200877F8093620085EDD6
:100550008A95F1F70000915051F7089591E09FB905
:10056000779BFECF8FB9779BFECF8091620088602A
:100570008093620080916200877F8093620008957B
:10058000FC0140E050E060E071E0DF01A40FB51F26
:100590008C917FB9779BFECF8FB9779BFECF9091DF
:1005A000620098609093620090916200977F9093B0
:1005B000620085ED8A95F1F700006F5F462F50E0ED
:1005C000DF010D900020E9F79D012E1B3F0B22500B
:1005D000310924173507C8F608958FEF99EF019771
:1005E000F1F700C0000088E0809361001FB8779B9E
:1005F000FECF80E38FB9779BFECF80916200886049
:100600008093620080916200877F809362008FE513
:100610009DE60197F1F700C000001FB8779BFECF61
:1006200080E38FB9779BFECF8091620088608093D2
:10063000620080916200877F809362008FE59DE673
:100640000197F1F700C000001FB8779BFECF80E351
:100650008FB9779BFECF80916200886080936200A3
:1006600080916200877F809362008FE59DE601970D
:10067000F1F700C000001FB8779BFECF88E38FB969
:10068000779BFECF809162008860809362008091AA
:100690006200877F809362008FE19EE40197F1F70B
:1006A00000C000001FB8779BFECF88E08FB9779B12
:1006B000FECF80916200886080936200809162002A
:1006C000877F809362008FE19EE40197F1F700C07D
:1006D00000001FB8779BFECF81E08FB9779BFECFDC
:1006E0008091620088608093620080916200877FC1
:1006F000809362008FE19EE40197F1F700C0000053
:100700001FB8779BFECF86E08FB9779BFECF809195
:10071000620088608093620080916200877F80938E
:1007200062008FE19EE40197F1F700C000001FB85E
:10073000779BFECF8CE08FB9779BFECF80916200D4
:1007400088608093620080916200877F809362005E
:100750008FE19EE40197F1F700C0000008954F92E9
:100760005F926F927F928F929F92AF92BF92CF9241
:10077000DF92EF92FF920F931F93CF93DF93CDB74A
:10078000DEB769970FB6F894DEBF0FBECDBF142F4A
:10079000422E5E2C002379F06B017C01CC24F7FC07
:1007A000C394DD24EE24FF240C2D6B017C0197FD06
:1007B000A3C0C701B601442009F496C09E012F5F73
:1007C0003F4F5901490166246A94640C712C3FEF34
:1007D000631A730A6A0C7B1C2AE030E040E050E0A8
:1007E0000E94AB05E62F2A8B3B8B4C8B5D8B6A8975
:1007F0007B898C899D8920E32E0FF40121934F0181
:100800006E167F0649F799249394940CF501E40D34
:10081000F11D2EE220832AE030E040E050E00E940B
:10082000AB05E62F2A8B3B8B4C8B5D8B6E8B7F8BC6
:10083000888F998F6A897B898C899D8931E0390DF0
:10084000D501A90DB11DE05DEC93932E61157105E5
:100850008105910501F7112361F051104BC090E221
:10086000311738F4F501E30FF11D90833F5F131347
:10087000F9CF002331F0F501E30FF11D9DE29083E4
:100880003F5F21E03150F501E30FF11D90812FB959
:10089000779BFECF9FB9779BFECF909162009860C7
:1008A0009093620090916200977F9093620085ED33
:1008B0008A95F1F700003111E5CF69960FB6F894EB
:1008C000DEBF0FBECDBFDF91CF911F910F91FF9083
:1008D000EF90DF90CF90BF90AF909F908F907F90E0
:1008E0006F905F904F900895912C9E012F5F3F4F26
:1008F000590191CF90E3B4CFF094E094D094C09498
:10090000C11CD11CE11CF11C54CF5F926F927F92ED
:100910008F929F92AF92BF92CF92DF92EF92FF920F
:100920000F931F93CF93DF93CDB7DEB761970FB6C9
:10093000F894DEBF0FBECDBF5C01962E542E622E02
:100940008B2C881C8824881C782C9C0197FD9DC0CA
:10095000552009F48EC08E010F5F1F4F7801CC2403
:10096000CA94C50CD12C8FEFC81AD80AC00ED11E5C
:100970006AE070E0C9010E949705462F242F372FA7
:10098000805DF70181937F01EC15FD0589F7FF2458
:10099000F394F50CF801E50DF11D8EE2808301C0A2
:1009A000F92E6AE070E0C9010E949705462F242FB6
:1009B000372F91E09F0DF801EF0DF11D805D8083D1
:1009C0002115310569F7611059C0B7FC63C0992042
:1009D000B1F0682D70E080E2292F30E0492D50E021
:1009E000461B570B2417350754F49F5FF801E20F9D
:1009F000F31F8083292F30E024173507B4F37720C5
:100A000031F0F801E90FF11D8DE280839F5F21E055
:100A10009150F801E90FF11D80812FB9779BFECF2E
:100A20008FB9779BFECF80916200886080936200CF
:100A300080916200877F80936200F5EDFA95F1F76F
:100A400000009111E5CF61960FB6F894DEBF0FBE9E
:100A5000CDBFDF91CF911F910F91FF90EF90DF906D
:100A6000CF90BF90AF909F908F907F906F905F904E
:100A70000895F12C8E010F5F1F4F93CF992009F439
:100A8000BECF682D70E080E3A7CF22273327281B35
:100A9000390B5ECFF394F394F801E90FF11D8DE269
:100AA0008083992059F02F2D30E0492D50E02417F4
:100AB000350724F49F2D712C80E297CF9F2DA7CF6F
:100AC00087B3876087BB80E58DB9C1E0CEB90E944E
:100AD000ED020E9440020E94010287B7826087BF38
:100AE00083B7886083BFC1BF83B7816083BF7894B9
:100AF000109206018FE39FE10197F1F700C000001B
:100B0000809106018F5F80930601853098F3809174
:100B10000001909101014AE067E071E00E94000647
:100B200087E091E00E94C0020E945802E1CF97FB4B
:100B3000072E16F4009407D077FD09D00E94CA054D
:100B400007FC05D03EF4909581959F4F08957095D0
:100B500061957F4F0895052E97FB1EF400940E9427
:100B6000C20557FD07D00E94DE0507FC03D04EF4F6
:100B70000C94C20550954095309521953F4F4F4FAD
:100B80005F4F089590958095709561957F4F8F4F39
:100B90009F4F0895AA1BBB1B51E107C0AA1FBB1F93
:100BA000A617B70710F0A61BB70B881F991F5A95F9
:100BB000A9F780959095BC01CD010895A1E21A2E68
:100BC000AA1BBB1BFD010DC0AA1FBB1FEE1FFF1FF1
:100BD000A217B307E407F50720F0A21BB30BE40B41
:100BE000F50B661F771F881F991F1A9469F7609588
:100BF0007095809590959B01AC01BD01CF01089542
:100C0000BB274A3031F4992322F4BDE290958195B7
:100C10009F4F0C940C06BB27FB015527AA27880F72
:100C2000991FAA1FA41710F0A41B83955051B9F760
:100C3000A05DAA3308F0A95DA193009779F7B111DF
:100C4000B1931192CB010C942506DC01FC01672FB6
:100C500071917723E1F7329704C07C916D93708393
:0E0C60006291AE17BF07C8F30895F894FFCF56
:00000001FF
