S0110000756172745F727874782E7372656322
S11300000C9446000C9458000C9458000C9458001E
S11300100C9458000C9458000C9458000C945800FC
S11300200C9458000C9458000C9458000C945800EC
S11300300C9458000C9458000C9458000C945800DC
S11300400C9458000C9458000C9458000C945800CC
S11300500C9458000C9458000C9458000C945800BC
S11300600C9458000C9458000C9458000C945800AC
S11300700C9458000C9458000C9458000C9458009C
S11300800C9458000C9458000C94580011241FBE72
S1130090CFEFD0E1DEBFCDBF21E0A0E0B1E001C0F1
S11300A01D92A83EB207E1F70E9486050C940B0648
S11300B00C94000087B3876087BB8DB180658DB9D0
S11300C0709A08955D9BFECF8CB95D9BFECF089519
S11300D090919B0095FFFCCF80939C0080919B00A6
S11300E085FFFCCF0895FC019081992349F0319656
S11300F05D9BFECF9CB95D9BFECF91919111F8CF92
S11301000895FC012081222371F0319690919B0087
S113011095FFFCCF20939C0090919B0095FFFCCF12
S113012021912111F3CF08959C01FC0144914423B2
S113013069F00196F90124915D9BFECF2CB95D9B7A
S1130140FECF9C01FC0144914111F3CF08958AB183
S113015088698AB9E5E9F0E080818660808310923D
S1130160900087E689B90895EAE9F0E08081886122
S11301708083EDE9F0E080818660808310929800AE
S113018087E680939900089580E89EE302C0019772
S113019021F05F9BFCCF8CB1089580E0089580E846
S11301A09EE302C0019739F020919B0027FFFACF0C
S11301B080919C00089580E0089591E0811101C030
S11301C090E09FB9779BFECF6FB9779BFECF80916C
S11301D0620088608093620080916200877F8093D0
S11301E06200089520910101820F911DFC0180811C
S11301F091E09FB9779BFECF8FB9779BFECF80911B
S1130200620088608093620080916200877F80939F
S11302106200809101018F5F809301018031D9F0E8
S1130220803209F0089585ED8A95F1F700001FB832
S1130230779BFECF80E88FB9779BFECF80916200D9
S113024088608093620080916200877F809362005F
S1130250109201010895F5EDFA95F1F700001FB829
S1130260779BFECF80EC8FB9779BFECF80916200A5
S113027088608093620080916200877F809362002F
S113028080910101CDCF660F660F660F605C1FB8C9
S1130290779BFECF6FB9779BFECF209162002860D9
S11302A02093620020916200277F2093620025ED55
S11302B02A95F1F70000FC019C01285F3F4F91E073
S11302C081919FB9779BFECF8FB9779BFECF8091A9
S11302D0620088608093620080916200877F8093CF
S11302E0620085ED8A95F1F70000E217F30741F704
S11302F0089590E4899F600D1124605C1FB8779B7A
S1130300FECF6FB9779BFECF8091620088608093A7
S1130310620080916200877F80936200089581115A
S113032013C081E08FB9779BFECF80E38FB9779BB1
S1130330FECF8091620088608093620080916200A9
S1130340877F8093620008958436B0F48A3060F524
S113035091E09FB9779BFECF9DEC899F912D11244D
S11303609695969596952AE0929F80191124805D22
S11303708FB9779BFECFDDCF99E2899F912D112410
S113038092959F70905D21E02FB9779BFECF9FB926
S1130390779BFECF90916200986090936200909159
S11303A06200977F9093620099E2899F912D1124B6
S11303B092959F70382F24E6929F301911242DECCA
S11303C0329F912D1124969596959695905D21E0F6
S11303D02FB9779BFECF9FB9779BFECF9091620098
S11303E098609093620090916200977F909362006E
S11303F0AFCF87FF0C948F0191E09FB9779BFECF1D
S11304009DE29FB9779BFECF909162009860909394
S1130410620090916200977F9093620095ED9A95A7
S1130420F1F7000081950C948F011FB8779BFECFE4
S11304308EE08FB9779BFECF8091620088608093B5
S1130440620080916200877F8093620008951FB8E4
S1130450779BFECF8CE08FB9779BFECF80916200B3
S113046088608093620080916200877F809362003D
S113047008951FB8779BFECF8EE18FB9779BFECF8F
S11304808091620088608093620080916200877F1F
S11304908093620008951FB8779BFECF88E18FB9DF
S11304A0779BFECF80916200886080936200809188
S11304B06200877F809362000895E2E6F0E0808125
S11304C0886080838081877F808308951FB8779BAD
S11304D0FECF81E08FB9779BFECF80916200886068
S11304E08093620080916200877F809362008FE135
S11304F09CE10197F1F700C0000008951FB8779BB5
S1130500FECF82E08FB9779BFECF80916200886036
S11305108093620080916200877F809362008FE6FF
S113052097E10197F1F700C0000008951FB8779B89
S1130530FECF80EC8FB9779BFECF809162008860FC
S11305408093620080916200877F809362000895A7
S11305501FB8779BFECF80E88FB9779BFECF809141
S1130560620088608093620080916200877F80933C
S11305706200089590E131E020E23FB9779BFECF1D
S11305802FB9779BFECF80916200886080936200D0
S113059080916200877F8093620085ED8A95F1F7F0
S11305A00000915051F7089591E09FB9779BFECFD9
S11305B08FB9779BFECF8091620088608093620040
S11305C080916200877F809362000895FC0140E07F
S11305D050E060E071E0DF01A40FB51F8C917FB99A
S11305E0779BFECF8FB9779BFECF90916200986086
S11305F09093620090916200977F9093620085EDE2
S11306008A95F1F700006F5F462F50E0DF010D90EF
S11306100020E9F79D012E1B3F0B225031092417BE
S11306203507C8F608958FEF99EF0197F1F700C0E9
S1130630000088E0809361001FB8779BFECF80E3C1
S11306408FB9779BFECF80916200886080936200AF
S113065080916200877F809362008FE59DE6019719
S1130660F1F700C000001FB8779BFECF80E38FB97D
S1130670779BFECF809162008860809362008091B6
S11306806200877F809362008FE59DE60197F1F712
S113069000C000001FB8779BFECF80E38FB9779B23
S11306A0FECF809162008860809362008091620036
S11306B0877F809362008FE59DE60197F1F700C084
S11306C000001FB8779BFECF88E38FB9779BFECFDE
S11306D08091620088608093620080916200877FCD
S11306E0809362008FE19EE40197F1F700C000005F
S11306F01FB8779BFECF88E08FB9779BFECF8091A0
S1130700620088608093620080916200877F80939A
S113071062008FE19EE40197F1F700C000001FB86A
S1130720779BFECF81E08FB9779BFECF80916200EB
S113073088608093620080916200877F809362006A
S11307408FE19EE40197F1F700C000001FB8779B8A
S1130750FECF86E08FB9779BFECF809162008860E0
S11307608093620080916200877F809362008FE1B2
S11307709EE40197F1F700C000001FB8779BFECFFD
S11307808CE08FB9779BFECF809162008860809364
S1130790620080916200877F809362008FE19EE413
S11307A00197F1F700C0000008954F925F926F9295
S11307B07F928F929F92AF92BF92CF92DF92EF92ED
S11307C0FF920F931F93CF93DF93CDB7DEB7699753
S11307D00FB6F894DEBF0FBECDBF142F422E5E2C91
S11307E0002379F06B017C01CC24F7FCC394DD2455
S11307F0EE24FF240C2D6B017C0197FDA3C0C701DF
S1130800B601442009F496C09E012F5F3F4F590161
S1130810490166246A94640C712C3FEF631A730ACD
S11308206A0C7B1C2AE030E040E050E00E94B605F0
S1130830E62F2A8B3B8B4C8B5D8B6A897B898C8959
S11308409D8920E32E0FF40121934F016E167F063C
S113085049F799249394940CF501E40DF11D2EE2CB
S113086020832AE030E040E050E00E94B605E62F05
S11308702A8B3B8B4C8B5D8B6E8B7F8B888F998FF8
S11308806A897B898C899D8931E0390DD501A90D4F
S1130890B11DE05DEC93932E611571058105910501
S11308A001F7112361F051104BC090E2311738F475
S11308B0F501E30FF11D90833F5F1313F9CF00237C
S11308C031F0F501E30FF11D9DE290833F5F21E0DC
S11308D03150F501E30FF11D90812FB9779BFECFC5
S11308E09FB9779BFECF90916200986090936200CD
S11308F090916200977F9093620085ED8A95F1F75D
S113090000003111E5CF69960FB6F894DEBF0FBE33
S1130910CDBFDF91CF911F910F91FF90EF90DF90AA
S1130920CF90BF90AF909F908F907F906F905F908B
S11309304F900895912C9E012F5F3F4F590191CF05
S113094090E3B4CFF094E094D094C094C11CD11C33
S1130950E11CF11C54CF5F926F927F928F929F9211
S1130960AF92BF92CF92DF92EF92FF920F931F93B9
S1130970CF93DF93CDB7DEB761970FB6F894DEBFA0
S11309800FBECDBF5C01962E542E622E8B2C881C7C
S11309908824881C782C9C0197FD9DC0552009F45F
S11309A08EC08E010F5F1F4F7801CC24CA94C50CF2
S11309B0D12C8FEFC81AD80AC00ED11E6AE070E09D
S11309C0C9010E94A205462F242F372F805DF7010D
S11309D081937F01EC15FD0589F7FF24F394F50C51
S11309E0F801E50DF11D8EE2808301C0F92E6AE065
S11309F070E0C9010E94A205462F242F372F91E0F1
S1130A009F0DF801EF0DF11D805D808321153105E7
S1130A1069F7611059C0B7FC63C09920B1F0682D23
S1130A2070E080E2292F30E0492D50E0461B570B3F
S1130A302417350754F49F5FF801E20FF31F8083F6
S1130A40292F30E024173507B4F3772031F0F8016B
S1130A50E90FF11D8DE280839F5F21E09150F80141
S1130A60E90FF11D80812FB9779BFECF8FB9779B5A
S1130A70FECF809162008860809362008091620062
S1130A80877F80936200F5EDFA95F1F700009111EC
S1130A90E5CF61960FB6F894DEBF0FBECDBFDF91F0
S1130AA0CF911F910F91FF90EF90DF90CF90BF9067
S1130AB0AF909F908F907F906F905F900895F12CEE
S1130AC08E010F5F1F4F93CF992009F4BECF682D7D
S1130AD070E080E3A7CF22273327281B390B5ECF92
S1130AE0F394F394F801E90FF11D8DE280839920CA
S1130AF059F02F2D30E0492D50E02417350724F408
S1130B009F2D712C80E297CF9F2DA7CF80916100FC
S1130B108860809361000E94A70087B3876087BBC9
S1130B208DB180658DB9709A0E9413030E9466028C
S1130B300E947E0278940E94C400809317010E9450
S1130B40D402F9CF97FB072E16F4009407D077FD53
S1130B5009D00E94D50507FC05D03EF490958195F7
S1130B609F4F0895709561957F4F0895052E97FBCB
S1130B701EF400940E94CD0557FD07D00E94E9059C
S1130B8007FC03D04EF40C94CD0550954095309558
S1130B9021953F4F4F4F5F4F0895909580957095E5
S1130BA061957F4F8F4F9F4F0895AA1BBB1B51E147
S1130BB007C0AA1FBB1FA617B70710F0A61BB70BC9
S1130BC0881F991F5A95A9F780959095BC01CD016E
S1130BD00895A1E21A2EAA1BBB1BFD010DC0AA1F7A
S1130BE0BB1FEE1FFF1FA217B307E407F50720F092
S1130BF0A21BB30BE40BF50B661F771F881F991F0D
S1130C001A9469F760957095809590959B01AC0155
S10D0C10BD01CF010895F894FFCF51
S9030000FC
