:100000000C9446000C9465000C9465000C946500FB
:100010000C9465000C9465000C9465000C946500CC
:100020000C9465000C9465000C9465000C946500BC
:100030000C9465000C9465000C9465000C946500AC
:100040000C9449010C9465000C9465000C946500B7
:100050000C9465000C9465000C9465000C9465008C
:100060000C9465000C9465000C9465000C9465007C
:100070000C9465000C9465000C9465000C9465006C
:100080000C9465000C9465000C94650011241FBE4F
:10009000CFEFD0E1DEBFCDBF11E0A0E0B1E0E4E3FF
:1000A000F5E000E00BBF02C007900D92A431B1074C
:1000B000D9F721E0A4E1B1E001C01D92A033B2075D
:1000C000E1F70E9415020C9498020C940000EF9244
:1000D000FF920F931F93CF93DF938C019C01369572
:1000E00027953695279536952795A5ECB0E20E9481
:1000F0008902EC01FC01F295E295EF70EF27FF70A9
:10010000EF2728EE33E0E29FC001E39F900DF29FBE
:10011000900D1124F801E81BF90B9F0136952795E6
:1001200036952795ABE7B4E10E9489027C01AC01CA
:100130005695479524E6249FC001259F900D1124D4
:10014000AF01481B590B9A01ADECBCEC0E9489022F
:10015000969587959695879596958795BC01660F98
:10016000771F9C01220F331F220F331F220F331FD3
:10017000260F371F421B530BFA01E050FF4F20811F
:1001800020932C01FC01E050FF4F808180932D01D2
:10019000F701F695E795E050FF4F808180932E019F
:1001A000D295C295CF70CD27DF70CD27C050DF4FDD
:1001B000888180932F010A301105E4F0043611057F
:1001C0006CF0083E13401CF48FEF80932F01DF91F9
:1001D000CF911F910F91FF90EF9008958FEF809333
:1001E0002E0180932F01DF91CF911F910F91FF90EE
:1001F000EF9008958FEF80932D0180932E018093CF
:100200002F01DF91CF911F910F91FF90EF900895F3
:10021000482FE82FF0E099B3EE0FFF1FE45EFE4F8A
:1002200020813181220F331F306E892F90E002C070
:10023000959587954A95E2F781709927282B392B58
:100240003183208381E02115304F09F080E008954B
:1002500087EF87BB0000000080E58DB9709A089594
:100260001F9A0000000083B1807883B9000000006D
:100270001F9A83B1807483B91FB8779BFECF8FB16B
:100280000895809117018FB9779BFECFC09AC098CF
:1002900008951F920F920FB60F9211240BB60F9272
:1002A0002F933F934F935F936F937F938F939F937E
:1002B000AF93BF93EF93FF930E94300180931B0194
:1002C00078B388B3806788BB000000006091170195
:1002D000EEE1F1E041E050E0A1E099B3208131810D
:1002E000220F331F306E892F90E0042E02C09595A7
:1002F00087950A94E2F781709927822B932B81933B
:1003000091938115904F21F1633079F14F5F5F4FE9
:100310004330510511F778BB0000000080911701B0
:100320008FB9779BFECFC09AC098FF91EF91BF9194
:10033000AF919F918F917F916F915F914F913F917D
:100340002F910F900BBE0F900FBE0F901F9018951E
:100350006427609317018FE39FE10197F1F700C0D5
:10036000000060911701633089F6A0931601CECF8B
:1003700080911B01282F217020931A0181FB3327C4
:1003800030F93093190182FB442740F9409315015D
:1003900083FB992790F990931401809112012817FB
:1003A000F1F0821728F480911101832B813091F1B3
:1003B000209312013093110180910F014817E9F049
:1003C000841710F520910E01292B81E0213009F0CE
:1003D00080E0819540930F0190930E0108952111C3
:1003E00021C02091110181E03217D0F41092120146
:1003F00030931101321700F70895411105C081E0D3
:1004000020910E01921730F380E040930F019093FA
:100410000E01089520931201309311018FEF08957A
:1004200080E0E4CF30931101C7CF80B780BF7894CC
:1004300087B7816087BF85E083BF8FEF82B90000F7
:10044000000087EF87BB0000000080E58DB9709A3F
:1004500000E010E0F12CEE24EA94BB24B394CC2409
:10046000C394D12C45C0CF2DD0E0F3948FE39FE10E
:100470000197F1F700C000001ABA00000000EBBAC3
:100480000E94B80180931801909116019130C1F13A
:1004900096010090170102C0220F331F0A94E2F761
:1004A000682F6203A001639F500D112480911001F9
:1004B000849F9001859F300D1124020F131F9923F3
:1004C00009F117FD23C0011584E0180714F001E0BD
:1004D00010E0C8010E946700EABA00000000FE01B7
:1004E000E45DFE4F80818BBBC65FDE4F888188BB99
:1004F00064E0F612B8CFFF24F394C0E0D0E0B6CFAA
:1005000010921601B092100117FFDDCF0FEF13E02C
:10051000E0CFA29FB001B39FC001A39F700D811DCA
:100520001124911DB29F700D811D1124911D0895FC
:04053000F894FFCF6D
:10053400039F250D9949411F010900103040030311
:0405440001030300AC
:00000001FF
